{
  "contractName": "Processes",
  "abi": [
    {
      "constant": true,
      "inputs": [],
      "name": "processCount",
      "outputs": [
        {
          "internalType": "uint256",
          "name": "",
          "type": "uint256"
        }
      ],
      "payable": false,
      "stateMutability": "view",
      "type": "function"
    },
    {
      "constant": true,
      "inputs": [],
      "name": "productsCount",
      "outputs": [
        {
          "internalType": "uint256",
          "name": "",
          "type": "uint256"
        }
      ],
      "payable": false,
      "stateMutability": "view",
      "type": "function"
    },
    {
      "constant": false,
      "inputs": [
        {
          "internalType": "string",
          "name": "_name",
          "type": "string"
        },
        {
          "internalType": "string",
          "name": "_description",
          "type": "string"
        },
        {
          "internalType": "address",
          "name": "addr",
          "type": "address"
        }
      ],
      "name": "addProcess",
      "outputs": [],
      "payable": false,
      "stateMutability": "nonpayable",
      "type": "function"
    },
    {
      "constant": false,
      "inputs": [
        {
          "internalType": "uint256",
          "name": "processid",
          "type": "uint256"
        },
        {
          "internalType": "uint256",
          "name": "_id",
          "type": "uint256"
        },
        {
          "internalType": "address",
          "name": "addr1",
          "type": "address"
        },
        {
          "internalType": "address",
          "name": "addr2",
          "type": "address"
        }
      ],
      "name": "addProcessesProduct",
      "outputs": [],
      "payable": false,
      "stateMutability": "nonpayable",
      "type": "function"
    },
    {
      "constant": false,
      "inputs": [
        {
          "internalType": "address",
          "name": "addr",
          "type": "address"
        },
        {
          "internalType": "uint256",
          "name": "_id",
          "type": "uint256"
        },
        {
          "internalType": "bool",
          "name": "_active",
          "type": "bool"
        }
      ],
      "name": "changeStatus",
      "outputs": [],
      "payable": false,
      "stateMutability": "nonpayable",
      "type": "function"
    },
    {
      "constant": true,
      "inputs": [
        {
          "internalType": "uint256",
          "name": "_id",
          "type": "uint256"
        }
      ],
      "name": "getProcessesProduct",
      "outputs": [
        {
          "internalType": "uint256[]",
          "name": "",
          "type": "uint256[]"
        }
      ],
      "payable": false,
      "stateMutability": "view",
      "type": "function"
    },
    {
      "constant": true,
      "inputs": [
        {
          "internalType": "uint256",
          "name": "_processId",
          "type": "uint256"
        }
      ],
      "name": "getProcess",
      "outputs": [
        {
          "components": [
            {
              "internalType": "uint256",
              "name": "id",
              "type": "uint256"
            },
            {
              "internalType": "string",
              "name": "name",
              "type": "string"
            },
            {
              "internalType": "uint256",
              "name": "timestamp",
              "type": "uint256"
            },
            {
              "internalType": "string",
              "name": "description",
              "type": "string"
            },
            {
              "internalType": "bool",
              "name": "active",
              "type": "bool"
            },
            {
              "internalType": "address",
              "name": "maker",
              "type": "address"
            },
            {
              "internalType": "uint256[]",
              "name": "involvedproducts",
              "type": "uint256[]"
            }
          ],
          "internalType": "struct Processes.Process",
          "name": "",
          "type": "tuple"
        }
      ],
      "payable": false,
      "stateMutability": "view",
      "type": "function"
    },
    {
      "constant": true,
      "inputs": [],
      "name": "getNumberOfProcesses",
      "outputs": [
        {
          "internalType": "uint256",
          "name": "",
          "type": "uint256"
        }
      ],
      "payable": false,
      "stateMutability": "view",
      "type": "function"
    },
    {
      "constant": true,
      "inputs": [
        {
          "internalType": "uint256",
          "name": "_processId",
          "type": "uint256"
        }
      ],
      "name": "getProcessDetails",
      "outputs": [
        {
          "internalType": "string",
          "name": "",
          "type": "string"
        }
      ],
      "payable": false,
      "stateMutability": "view",
      "type": "function"
    },
    {
      "constant": false,
      "inputs": [
        {
          "internalType": "address",
          "name": "addr",
          "type": "address"
        }
      ],
      "name": "updateNumberOfProducts",
      "outputs": [],
      "payable": false,
      "stateMutability": "nonpayable",
      "type": "function"
    }
  ],
  "bytecode": "0x608060405234801561001057600080fd5b50611736806100206000396000f3fe608060405234801561001057600080fd5b506004361061009e5760003560e01c806395bef5181161006657806395bef51814610159578063ba3063c114610177578063d0851a7114610193578063e0df7bb6146101c3578063fc6b7f0e146101e15761009e565b80630b3f989c146100a357806311ca4d85146100bf5780637463a048146100ef578063848df5401461010b5780638e878a8e14610129575b600080fd5b6100bd60048036036100b89190810190610ffb565b6101fd565b005b6100d960048036036100d4919081019061107a565b6103cc565b6040516100e69190611425565b60405180910390f35b61010960048036036101049190810190610f83565b610454565b005b610113610543565b604051610120919061148b565b60405180910390f35b610143600480360361013e919081019061107a565b610549565b6040516101509190611447565b60405180910390f35b6101616107e1565b60405161016e919061148b565b60405180910390f35b610191600480360361018c9190810190610f5a565b6107eb565b005b6101ad60048036036101a8919081019061107a565b610878565b6040516101ba9190611469565b60405180910390f35b6101cb610ae0565b6040516101d8919061148b565b60405180910390f35b6101fb60048036036101f691908101906110cc565b610ae6565b005b80600081905060008173ffffffffffffffffffffffffffffffffffffffff166317d4a491336040518263ffffffff1660e01b815260040161023e919061140a565b60206040518083038186803b15801561025657600080fd5b505afa15801561026a573d6000803e3d6000fd5b505050506040513d601f19601f8201168201806040525061028e9190810190610fd2565b90508061029a57600080fd5b60026000815480929190600101919050555060025460008060025481526020019081526020016000206000018190555085600080600254815260200190815260200160002060010190805190602001906102f5929190610da3565b5042600080600254815260200190815260200160002060020181905550846000806002548152602001908152602001600020600301908051906020019061033d929190610da3565b506001600080600254815260200190815260200160002060040160006101000a81548160ff02191690831515021790555033600080600254815260200190815260200160002060040160016101000a81548173ffffffffffffffffffffffffffffffffffffffff021916908373ffffffffffffffffffffffffffffffffffffffff160217905550505050505050565b60606000821180156103e057506002548211155b6103e957600080fd5b60008083815260200190815260200160002060050180548060200260200160405190810160405280929190818152602001828054801561044857602002820191906000526020600020905b815481526020019060010190808311610434575b50505050509050919050565b82600081905060008173ffffffffffffffffffffffffffffffffffffffff166317d4a491336040518263ffffffff1660e01b8152600401610495919061140a565b60206040518083038186803b1580156104ad57600080fd5b505afa1580156104c1573d6000803e3d6000fd5b505050506040513d601f19601f820116820180604052506104e59190810190610fd2565b9050806104f157600080fd5b60008511801561050357506002548511155b61050c57600080fd5b83600080600254815260200190815260200160002060040160006101000a81548160ff021916908315150217905550505050505050565b60025481565b606060008211801561055d57506002548211155b61056657600080fd5b60606040518060200160405280600081525090506105b9816040518060400160405280600d81526020017f50726f636573734e616d653a2000000000000000000000000000000000000000815250610c3e565b9050610672816000808681526020019081526020016000206001018054600181600116156101000203166002900480601f0160208091040260200160405190810160405280929190818152602001828054600181600116156101000203166002900480156106685780601f1061063d57610100808354040283529160200191610668565b820191906000526020600020905b81548152906001019060200180831161064b57829003601f168201915b5050505050610c3e565b90506106b3816040518060400160405280601481526020017f50726f636573734465736372697074696f6e3a20000000000000000000000000815250610c3e565b905061076c816000808681526020019081526020016000206003018054600181600116156101000203166002900480601f0160208091040260200160405190810160405280929190818152602001828054600181600116156101000203166002900480156107625780601f1061073757610100808354040283529160200191610762565b820191906000526020600020905b81548152906001019060200180831161074557829003601f168201915b5050505050610c3e565b90506107ad816040518060400160405280601281526020017f50726f6365737374696d657374616d703a200000000000000000000000000000815250610c3e565b90506107d6816107d160008087815260200190815260200160002060020154610c6a565b610c3e565b905080915050919050565b6000600254905090565b60008190508073ffffffffffffffffffffffffffffffffffffffff16633ffd81fb6040518163ffffffff1660e01b815260040160206040518083038186803b15801561083657600080fd5b505afa15801561084a573d6000803e3d6000fd5b505050506040513d601f19601f8201168201806040525061086e91908101906110a3565b6001819055505050565b610880610e23565b60008211801561089257506002548211155b61089b57600080fd5b6000808381526020019081526020016000206040518060e001604052908160008201548152602001600182018054600181600116156101000203166002900480601f01602080910402602001604051908101604052809291908181526020018280546001816001161561010002031660029004801561095b5780601f106109305761010080835404028352916020019161095b565b820191906000526020600020905b81548152906001019060200180831161093e57829003601f168201915b5050505050815260200160028201548152602001600382018054600181600116156101000203166002900480601f016020809104026020016040519081016040528092919081815260200182805460018160011615610100020316600290048015610a075780601f106109dc57610100808354040283529160200191610a07565b820191906000526020600020905b8154815290600101906020018083116109ea57829003601f168201915b505050505081526020016004820160009054906101000a900460ff161515151581526020016004820160019054906101000a900473ffffffffffffffffffffffffffffffffffffffff1673ffffffffffffffffffffffffffffffffffffffff1673ffffffffffffffffffffffffffffffffffffffff16815260200160058201805480602002602001604051908101604052809291908181526020018280548015610ad057602002820191906000526020600020905b815481526020019060010190808311610abc575b5050505050815250509050919050565b60015481565b81600081905060008173ffffffffffffffffffffffffffffffffffffffff166317d4a491336040518263ffffffff1660e01b8152600401610b27919061140a565b60206040518083038186803b158015610b3f57600080fd5b505afa158015610b53573d6000803e3d6000fd5b505050506040513d601f19601f82011682018060405250610b779190810190610fd2565b905080610b8357600080fd5b60008088815260200190815260200160002060050186908060018154018082558091505090600182039060005260206000200160009091929091909150555060008490508073ffffffffffffffffffffffffffffffffffffffff1663a0af06df89896040518363ffffffff1660e01b8152600401610c029291906114a6565b600060405180830381600087803b158015610c1c57600080fd5b505af1158015610c30573d6000803e3d6000fd5b505050505050505050505050565b60608282604051602001610c539291906113db565b604051602081830303815290604052905092915050565b60606000821415610cb2576040518060400160405280600181526020017f30000000000000000000000000000000000000000000000000000000000000008152509050610d9e565b600082905060005b60008214610cdc578080600101915050600a8281610cd457fe5b049150610cba565b6060816040519080825280601f01601f191660200182016040528015610d115781602001600182028038833980820191505090505b50905060008290505b60008614610d96576001810390506000600a808881610d3557fe5b04028703603001905060008160f81b905080848481518110610d5357fe5b60200101907effffffffffffffffffffffffffffffffffffffffffffffffffffffffffffff1916908160001a905350600a8881610d8c57fe5b0497505050610d1a565b819450505050505b919050565b828054600181600116156101000203166002900490600052602060002090601f016020900481019282601f10610de457805160ff1916838001178555610e12565b82800160010185558215610e12579182015b82811115610e11578251825591602001919060010190610df6565b5b509050610e1f9190610e78565b5090565b6040518060e0016040528060008152602001606081526020016000815260200160608152602001600015158152602001600073ffffffffffffffffffffffffffffffffffffffff168152602001606081525090565b610e9a91905b80821115610e96576000816000905550600101610e7e565b5090565b90565b600081359050610eac816116ae565b92915050565b600081359050610ec1816116c5565b92915050565b600081519050610ed6816116c5565b92915050565b600082601f830112610eed57600080fd5b8135610f00610efb826114fc565b6114cf565b91508082526020830160208301858383011115610f1c57600080fd5b610f2783828461165b565b50505092915050565b600081359050610f3f816116dc565b92915050565b600081519050610f54816116dc565b92915050565b600060208284031215610f6c57600080fd5b6000610f7a84828501610e9d565b91505092915050565b600080600060608486031215610f9857600080fd5b6000610fa686828701610e9d565b9350506020610fb786828701610f30565b9250506040610fc886828701610eb2565b9150509250925092565b600060208284031215610fe457600080fd5b6000610ff284828501610ec7565b91505092915050565b60008060006060848603121561101057600080fd5b600084013567ffffffffffffffff81111561102a57600080fd5b61103686828701610edc565b935050602084013567ffffffffffffffff81111561105357600080fd5b61105f86828701610edc565b925050604061107086828701610e9d565b9150509250925092565b60006020828403121561108c57600080fd5b600061109a84828501610f30565b91505092915050565b6000602082840312156110b557600080fd5b60006110c384828501610f45565b91505092915050565b600080600080608085870312156110e257600080fd5b60006110f087828801610f30565b945050602061110187828801610f30565b935050604061111287828801610e9d565b925050606061112387828801610e9d565b91505092959194509250565b600061113b83836113bd565b60208301905092915050565b61115081611625565b82525050565b61115f816115dd565b82525050565b600061117082611553565b61117a818561159f565b935061118583611538565b8060005b838110156111b657815161119d888261112f565b97506111a883611581565b925050600181019050611189565b5085935050505092915050565b60006111ce82611548565b6111d8818561158e565b93506111e383611528565b8060005b838110156112145781516111fb888261112f565b975061120683611574565b9250506001810190506111e7565b5085935050505092915050565b61122a816115ef565b82525050565b600061123b82611569565b61124581856115c1565b935061125581856020860161166a565b61125e8161169d565b840191505092915050565b600061127482611569565b61127e81856115d2565b935061128e81856020860161166a565b80840191505092915050565b60006112a58261155e565b6112af81856115b0565b93506112bf81856020860161166a565b6112c88161169d565b840191505092915050565b60006112e06001836115d2565b91507f20000000000000000000000000000000000000000000000000000000000000006000830152600182019050919050565b600060e08301600083015161132b60008601826113bd565b5060208301518482036020860152611343828261129a565b915050604083015161135860408601826113bd565b5060608301518482036060860152611370828261129a565b91505060808301516113856080860182611221565b5060a083015161139860a0860182611156565b5060c083015184820360c08601526113b082826111c3565b9150508091505092915050565b6113c68161161b565b82525050565b6113d58161161b565b82525050565b60006113e78285611269565b91506113f2826112d3565b91506113fe8284611269565b91508190509392505050565b600060208201905061141f6000830184611147565b92915050565b6000602082019050818103600083015261143f8184611165565b905092915050565b600060208201905081810360008301526114618184611230565b905092915050565b600060208201905081810360008301526114838184611313565b905092915050565b60006020820190506114a060008301846113cc565b92915050565b60006040820190506114bb60008301856113cc565b6114c860208301846113cc565b9392505050565b6000604051905081810181811067ffffffffffffffff821117156114f257600080fd5b8060405250919050565b600067ffffffffffffffff82111561151357600080fd5b601f19601f8301169050602081019050919050565b6000819050602082019050919050565b6000819050602082019050919050565b600081519050919050565b600081519050919050565b600081519050919050565b600081519050919050565b6000602082019050919050565b6000602082019050919050565b600082825260208201905092915050565b600082825260208201905092915050565b600082825260208201905092915050565b600082825260208201905092915050565b600081905092915050565b60006115e8826115fb565b9050919050565b60008115159050919050565b600073ffffffffffffffffffffffffffffffffffffffff82169050919050565b6000819050919050565b600061163082611637565b9050919050565b600061164282611649565b9050919050565b6000611654826115fb565b9050919050565b82818337600083830152505050565b60005b8381101561168857808201518184015260208101905061166d565b83811115611697576000848401525b50505050565b6000601f19601f8301169050919050565b6116b7816115dd565b81146116c257600080fd5b50565b6116ce816115ef565b81146116d957600080fd5b50565b6116e58161161b565b81146116f057600080fd5b5056fea365627a7a72315820c2f4a2ea73518e4c9a4f537c6f9ddd83e90db7be69d3eac4cc23a0ca0137cf4f6c6578706572696d656e74616cf564736f6c63430005110040",
  "source": "pragma solidity ^0.5.0;\r\npragma experimental ABIEncoderV2;\r\n\r\nimport './Product_Full_Details.sol';\r\nimport './Stakeholders.sol';\r\n\r\n\r\n\r\ncontract Processes{\r\n\r\n    struct Process {\r\n        uint id; // \r\n\t    string name;       \r\n        uint timestamp; // when it was registered\r\n        string description; // other info\r\n\t    bool active;\r\n        address maker; // who registered it and will execute it,stakeholder\r\n\t    uint [] involvedproducts; // id of products that use this process\r\n\r\n    }\r\n\r\n    mapping(uint => Process) private processChanges; //\r\n\r\n    \r\n    uint public productsCount;\r\n    uint public processCount;\r\n\r\n    \r\n    function addProcess (string memory _name, string memory _description,address addr) public restricted(addr) {\r\n\r\n        processCount++;\r\n\r\n        processChanges[processCount].id = processCount;\r\n        processChanges[processCount].name = _name; \r\n        processChanges[processCount].timestamp = now; \r\n        processChanges[processCount].description = _description; \r\n        processChanges[processCount].active = true; \r\n        processChanges[processCount].maker = msg.sender;\r\n    \r\n    }\r\n\r\n\r\n\r\n    //_id is the product id\r\n    //processid is the processsone\r\n    //addr1 is address of the stakeholder instance\r\n    //addr2 is addresss of the Product full details instance\r\n    function addProcessesProduct(uint processid,uint _id,address addr1,address addr2) public restricted(addr1) { \r\n        processChanges[processid].involvedproducts.push(_id);\r\n        Product_Full_Details p = Product_Full_Details(addr2);\r\n        p.addProductProcessInvolved(processid,_id);\r\n    }\r\n\r\n\r\n    //stakeholder contract address\r\n    function changeStatus (address addr,uint _id, bool _active) public restricted(addr) { \r\n        require(_id > 0 && _id <= processCount); \r\n        processChanges[processCount].active = _active;\r\n    }\r\n    \r\n    function getProcessesProduct (uint _id) public view returns (uint [] memory)  {\r\n        require(_id > 0 && _id <= processCount); \r\n        return processChanges[_id].involvedproducts;\r\n    }\r\n\r\n\r\n    function getProcess (uint _processId) public view returns (Process memory)  {\r\n        require(_processId > 0 && _processId <= processCount); \r\n       //require(Processes.checkStakeholder(address addr, msg.sender)==true); // if valid stakeholder    \r\n        return processChanges[_processId];\r\n    }\r\n    \r\n    // returns global number of stories, needed to iterate the mapping and to know info.\r\n    function getNumberOfProcesses () public view returns (uint){\r\n    //tx.origin \r\n        return processCount;\r\n    }\r\n    function concatenate(string memory a,string memory b) private pure returns (string memory){\r\n        return string(abi.encodePacked(a,' ',b));\r\n    } \r\n\r\n    function getProcessDetails (uint _processId) public view returns (string memory){\r\n        require(_processId > 0 && _processId <= processCount); \r\n        string memory r = \"\";\r\n        r = concatenate(r,\"ProcessName: \");\r\n        r = concatenate(r,processChanges[_processId].name);\r\n        r = concatenate(r,\"ProcessDescription: \");\r\n        r = concatenate(r,processChanges[_processId].description);\r\n        r = concatenate(r,\"Processtimestamp: \");\r\n        r = concatenate(r,uint2str(processChanges[_processId].timestamp));\r\n        return r;\r\n }\r\n    \r\n\r\n    //This function has no use here\r\n    // function checkStakeholder (address addr, address stake) public view returns (bool){\r\n    //     Stakeholders s = Stakeholders(addr);\r\n    //     bool ex=s.exists(stake);\r\n    //     return ex;\r\n    // }\r\n\r\n    function updateNumberOfProducts (address addr) public {\r\n        Product_Full_Details f = Product_Full_Details(addr);\r\n        productsCount =f.getNumberOfProducts(); \r\n    }\r\n\r\n    function uint2str(uint _i) internal pure returns (string memory _uintAsString) {\r\n            if (_i == 0) {\r\n                return \"0\";\r\n            }\r\n            uint j = _i;\r\n            uint len;\r\n            while (j != 0) {\r\n                len++;\r\n                j /= 10;\r\n            }\r\n            bytes memory bstr = new bytes(len);\r\n            uint k = len;\r\n            while (_i != 0) {\r\n                k = k-1;\r\n                uint8 temp = (48 + uint8(_i - _i / 10 * 10));\r\n                bytes1 b1 = bytes1(temp);\r\n                bstr[k] = b1;\r\n                _i /= 10;\r\n            }\r\n            return string(bstr);\r\n        }\r\n\r\n\r\n    modifier restricted(address addr){\r\n        Stakeholders s = Stakeholders(addr);\r\n        bool ex=s.isManufacturer(msg.sender);\r\n        require(ex);\r\n        _;\r\n    }\r\n    \r\n}",
  "sourcePath": "C:\\Users\\91868\\Downloads\\New folder\\c\\contracts\\Processes.sol",
  "compiler": {
    "name": "solc",
    "version": "0.5.17+commit.d19bba13.Emscripten.clang"
  },
  "schemaVersion": "3.4.7",
  "updatedAt": "2022-06-28T17:33:45.098Z",
  "networkType": "ethereum",
  "devdoc": {
    "methods": {}
  },
  "userdoc": {
    "methods": {}
  }
}