{
  "contractName": "Product_Full_Details",
  "abi": [
    {
      "constant": true,
      "inputs": [],
      "name": "globalnumberProcesses",
      "outputs": [
        {
          "internalType": "uint256",
          "name": "",
          "type": "uint256"
        }
      ],
      "payable": false,
      "stateMutability": "view",
      "type": "function"
    },
    {
      "constant": true,
      "inputs": [],
      "name": "globalnumberstakeholders",
      "outputs": [
        {
          "internalType": "uint256",
          "name": "",
          "type": "uint256"
        }
      ],
      "payable": false,
      "stateMutability": "view",
      "type": "function"
    },
    {
      "constant": true,
      "inputs": [
        {
          "internalType": "uint256",
          "name": "",
          "type": "uint256"
        }
      ],
      "name": "products",
      "outputs": [
        {
          "internalType": "uint256",
          "name": "id",
          "type": "uint256"
        },
        {
          "internalType": "string",
          "name": "name",
          "type": "string"
        },
        {
          "internalType": "uint256",
          "name": "quantity",
          "type": "uint256"
        },
        {
          "internalType": "string",
          "name": "description",
          "type": "string"
        },
        {
          "internalType": "uint256",
          "name": "numberoftraces",
          "type": "uint256"
        },
        {
          "internalType": "uint256",
          "name": "numberoftemperatures",
          "type": "uint256"
        },
        {
          "internalType": "string",
          "name": "test_number",
          "type": "string"
        },
        {
          "internalType": "string",
          "name": "globalId",
          "type": "string"
        }
      ],
      "payable": false,
      "stateMutability": "view",
      "type": "function"
    },
    {
      "constant": true,
      "inputs": [],
      "name": "productsCount",
      "outputs": [
        {
          "internalType": "uint256",
          "name": "",
          "type": "uint256"
        }
      ],
      "payable": false,
      "stateMutability": "view",
      "type": "function"
    },
    {
      "constant": false,
      "inputs": [
        {
          "internalType": "string",
          "name": "stakeholdertype",
          "type": "string"
        }
      ],
      "name": "registerStakeholder",
      "outputs": [],
      "payable": false,
      "stateMutability": "nonpayable",
      "type": "function"
    },
    {
      "constant": true,
      "inputs": [],
      "name": "getStakeHolderList",
      "outputs": [
        {
          "components": [
            {
              "internalType": "address",
              "name": "addressstake",
              "type": "address"
            },
            {
              "internalType": "string",
              "name": "staketype",
              "type": "string"
            }
          ],
          "internalType": "struct Product_Full_Details.stakeholder[]",
          "name": "",
          "type": "tuple[]"
        }
      ],
      "payable": false,
      "stateMutability": "view",
      "type": "function"
    },
    {
      "constant": false,
      "inputs": [
        {
          "internalType": "string",
          "name": "_name",
          "type": "string"
        },
        {
          "internalType": "uint256",
          "name": "_quantity",
          "type": "uint256"
        },
        {
          "internalType": "string",
          "name": "_description",
          "type": "string"
        },
        {
          "internalType": "string",
          "name": "_globalID",
          "type": "string"
        },
        {
          "internalType": "uint256",
          "name": "temp",
          "type": "uint256"
        },
        {
          "internalType": "string",
          "name": "place",
          "type": "string"
        },
        {
          "internalType": "address",
          "name": "addr",
          "type": "address"
        }
      ],
      "name": "addProductManufacturer",
      "outputs": [],
      "payable": false,
      "stateMutability": "nonpayable",
      "type": "function"
    },
    {
      "constant": false,
      "inputs": [
        {
          "internalType": "uint256",
          "name": "temp",
          "type": "uint256"
        },
        {
          "internalType": "uint256",
          "name": "pid",
          "type": "uint256"
        },
        {
          "internalType": "string",
          "name": "place",
          "type": "string"
        },
        {
          "internalType": "address",
          "name": "addr",
          "type": "address"
        }
      ],
      "name": "addProductDistributer",
      "outputs": [],
      "payable": false,
      "stateMutability": "nonpayable",
      "type": "function"
    },
    {
      "constant": false,
      "inputs": [
        {
          "internalType": "uint256",
          "name": "pid",
          "type": "uint256"
        },
        {
          "internalType": "uint256",
          "name": "temp",
          "type": "uint256"
        },
        {
          "internalType": "string",
          "name": "place",
          "type": "string"
        },
        {
          "internalType": "address",
          "name": "addr",
          "type": "address"
        }
      ],
      "name": "addProductRetailer",
      "outputs": [],
      "payable": false,
      "stateMutability": "nonpayable",
      "type": "function"
    },
    {
      "constant": false,
      "inputs": [
        {
          "internalType": "uint256",
          "name": "processid",
          "type": "uint256"
        },
        {
          "internalType": "uint256",
          "name": "productid",
          "type": "uint256"
        }
      ],
      "name": "addProductProcessInvolved",
      "outputs": [],
      "payable": false,
      "stateMutability": "nonpayable",
      "type": "function"
    },
    {
      "constant": false,
      "inputs": [
        {
          "internalType": "uint256",
          "name": "_productId",
          "type": "uint256"
        },
        {
          "internalType": "string",
          "name": "_test_number",
          "type": "string"
        }
      ],
      "name": "addTestProduct",
      "outputs": [],
      "payable": false,
      "stateMutability": "nonpayable",
      "type": "function"
    },
    {
      "constant": true,
      "inputs": [],
      "name": "getNumberOfProducts",
      "outputs": [
        {
          "internalType": "uint256",
          "name": "",
          "type": "uint256"
        }
      ],
      "payable": false,
      "stateMutability": "view",
      "type": "function"
    },
    {
      "constant": false,
      "inputs": [
        {
          "internalType": "uint256",
          "name": "_productId",
          "type": "uint256"
        },
        {
          "internalType": "string",
          "name": "_description",
          "type": "string"
        }
      ],
      "name": "UpdateProductDescription",
      "outputs": [],
      "payable": false,
      "stateMutability": "nonpayable",
      "type": "function"
    },
    {
      "constant": true,
      "inputs": [
        {
          "internalType": "uint256",
          "name": "_productId",
          "type": "uint256"
        }
      ],
      "name": "getProductFullDetails",
      "outputs": [
        {
          "internalType": "string",
          "name": "",
          "type": "string"
        }
      ],
      "payable": false,
      "stateMutability": "view",
      "type": "function"
    },
    {
      "constant": true,
      "inputs": [
        {
          "internalType": "uint256",
          "name": "_productId",
          "type": "uint256"
        }
      ],
      "name": "getProductGlobalID",
      "outputs": [
        {
          "internalType": "string",
          "name": "",
          "type": "string"
        }
      ],
      "payable": false,
      "stateMutability": "view",
      "type": "function"
    },
    {
      "constant": true,
      "inputs": [
        {
          "internalType": "uint256",
          "name": "_productId",
          "type": "uint256"
        }
      ],
      "name": "getProductTest",
      "outputs": [
        {
          "internalType": "string",
          "name": "",
          "type": "string"
        }
      ],
      "payable": false,
      "stateMutability": "view",
      "type": "function"
    },
    {
      "constant": false,
      "inputs": [
        {
          "internalType": "address",
          "name": "addr",
          "type": "address"
        }
      ],
      "name": "updateNumberOfProcesses",
      "outputs": [],
      "payable": false,
      "stateMutability": "nonpayable",
      "type": "function"
    },
    {
      "constant": false,
      "inputs": [
        {
          "internalType": "address",
          "name": "addr",
          "type": "address"
        }
      ],
      "name": "updateNumberOfStakeholders",
      "outputs": [],
      "payable": false,
      "stateMutability": "nonpayable",
      "type": "function"
    },
    {
      "constant": true,
      "inputs": [
        {
          "internalType": "address",
          "name": "addr",
          "type": "address"
        },
        {
          "internalType": "address",
          "name": "stake",
          "type": "address"
        }
      ],
      "name": "checkStakeholder",
      "outputs": [
        {
          "internalType": "bool",
          "name": "",
          "type": "bool"
        }
      ],
      "payable": false,
      "stateMutability": "view",
      "type": "function"
    }
  ],
  "bytecode": "0x608060405234801561001057600080fd5b506128ac806100206000396000f3fe608060405234801561001057600080fd5b50600436106101215760003560e01c806382b7a324116100ad578063cb29da5211610071578063cb29da52146102f7578063cb3e4ec614610313578063d269f68414610343578063d406056214610361578063e0df7bb61461039157610121565b806382b7a324146102535780639e39f0c11461026f578063a0af06df1461029f578063a288e3e9146102bb578063b724fe00146102d957610121565b806326202e46116100f457806326202e46146101965780633ffd81fb146101b2578063667350f7146101d05780636a92e477146101ec5780637acc0b201461021c57610121565b806310a7a0ea1461012657806316c8127c146101425780631850ab351461015e5780631a73402b1461017a575b600080fd5b610140600480360361013b91908101906121a4565b6103af565b005b61015c600480360361015791908101906121a4565b6103f8565b005b61017860048036036101739190810190612234565b610441565b005b610194600480360361018f9190810190612054565b6106b8565b005b6101b060048036036101ab9190810190611f85565b6109ef565b005b6101ba610a7c565b6040516101c791906125a0565b60405180910390f35b6101ea60048036036101e59190810190611f85565b610a86565b005b61020660048036036102019190810190611fae565b610b13565b6040516102139190612563565b60405180910390f35b61023660048036036102319190810190612152565b610bb1565b60405161024a9897969594939291906125e4565b60405180910390f35b61026d60048036036102689190810190612013565b610e59565b005b61028960048036036102849190810190612152565b610f1b565b604051610296919061257e565b60405180910390f35b6102b960048036036102b491908101906121f8565b610fed565b005b6102c3611030565b6040516102d091906125a0565b60405180910390f35b6102e1611036565b6040516102ee91906125a0565b60405180910390f35b610311600480360361030c9190810190612234565b61103c565b005b61032d60048036036103289190810190612152565b6112b3565b60405161033a919061257e565b60405180910390f35b61034b611385565b6040516103589190612541565b60405180910390f35b61037b60048036036103769190810190612152565b6114dc565b604051610388919061257e565b60405180910390f35b610399611c4d565b6040516103a691906125a0565b60405180910390f35b6000821180156103c157506002548211155b6103ca57600080fd5b8060008084815260200190815260200160002060030190805190602001906103f3929190611db8565b505050565b60008211801561040a57506002548211155b61041357600080fd5b80600080848152602001908152602001600020600601908051906020019061043c929190611db8565b505050565b8360008111801561045457506002548111155b61045d57600080fd5b600082905060008173ffffffffffffffffffffffffffffffffffffffff16635da09b88336040518263ffffffff1660e01b815260040161049d9190612526565b60206040518083038186803b1580156104b557600080fd5b505afa1580156104c9573d6000803e3d6000fd5b505050506040513d601f19601f820116820180604052506104ed9190810190611fea565b9050806104f957600080fd5b8173ffffffffffffffffffffffffffffffffffffffff16632d955cf988336040518363ffffffff1660e01b81526004016105349291906125bb565b600060405180830381600087803b15801561054e57600080fd5b505af1158015610562573d6000803e3d6000fd5b505050506000808881526020019081526020016000206007018690806001815401808255809150509060018203906000526020600020016000909192909190915055506000808881526020019081526020016000206009013390806001815401808255809150509060018203906000526020600020016000909192909190916101000a81548173ffffffffffffffffffffffffffffffffffffffff021916908373ffffffffffffffffffffffffffffffffffffffff16021790555050600080888152602001908152602001600020600a01429080600181540180825580915050906001820390600052602060002001600090919290919091505550600080888152602001908152602001600020600b018590806001815401808255809150509060018203906000526020600020016000909192909190915090805190602001906106ad929190611db8565b505050505050505050565b600081905060008173ffffffffffffffffffffffffffffffffffffffff166317d4a491336040518263ffffffff1660e01b81526004016106f89190612526565b60206040518083038186803b15801561071057600080fd5b505afa158015610724573d6000803e3d6000fd5b505050506040513d601f19601f820116820180604052506107489190810190611fea565b90508061075457600080fd5b6002600081548092919060010191905055508173ffffffffffffffffffffffffffffffffffffffff16632d955cf9600254336040518363ffffffff1660e01b81526004016107a39291906125bb565b600060405180830381600087803b1580156107bd57600080fd5b505af11580156107d1573d6000803e3d6000fd5b50505050600254600080600254815260200190815260200160002060000181905550886000806002548152602001908152602001600020600101908051906020019061081e929190611db8565b50876000806002548152602001908152602001600020600201819055508660008060025481526020019081526020016000206003019080519060200190610866929190611db8565b50856000806002548152602001908152602001600020600c019080519060200190610892929190611db8565b50600080600254815260200190815260200160002060070185908060018154018082558091505090600182039060005260206000200160009091929091909150555060008060025481526020019081526020016000206009013390806001815401808255809150509060018203906000526020600020016000909192909190916101000a81548173ffffffffffffffffffffffffffffffffffffffff021916908373ffffffffffffffffffffffffffffffffffffffff160217905550506000806002548152602001908152602001600020600a014290806001815401808255809150509060018203906000526020600020016000909192909190915055506000806002548152602001908152602001600020600b018490806001815401808255809150509060018203906000526020600020016000909192909190915090805190602001906109e2929190611db8565b5050505050505050505050565b60008190508073ffffffffffffffffffffffffffffffffffffffff166395bef5186040518163ffffffff1660e01b815260040160206040518083038186803b158015610a3a57600080fd5b505afa158015610a4e573d6000803e3d6000fd5b505050506040513d601f19601f82011682018060405250610a72919081019061217b565b6004819055505050565b6000600254905090565b60008190508073ffffffffffffffffffffffffffffffffffffffff1663b3d8f3b56040518163ffffffff1660e01b815260040160206040518083038186803b158015610ad157600080fd5b505afa158015610ae5573d6000803e3d6000fd5b505050506040513d601f19601f82011682018060405250610b09919081019061217b565b6003819055505050565b60008083905060008173ffffffffffffffffffffffffffffffffffffffff1663f6a3d24e856040518263ffffffff1660e01b8152600401610b54919061250b565b60206040518083038186803b158015610b6c57600080fd5b505afa158015610b80573d6000803e3d6000fd5b505050506040513d601f19601f82011682018060405250610ba49190810190611fea565b9050809250505092915050565b6000602052806000526040600020600091509050806000015490806001018054600181600116156101000203166002900480601f016020809104026020016040519081016040528092919081815260200182805460018160011615610100020316600290048015610c635780601f10610c3857610100808354040283529160200191610c63565b820191906000526020600020905b815481529060010190602001808311610c4657829003601f168201915b505050505090806002015490806003018054600181600116156101000203166002900480601f016020809104026020016040519081016040528092919081815260200182805460018160011615610100020316600290048015610d075780601f10610cdc57610100808354040283529160200191610d07565b820191906000526020600020905b815481529060010190602001808311610cea57829003601f168201915b505050505090806004015490806005015490806006018054600181600116156101000203166002900480601f016020809104026020016040519081016040528092919081815260200182805460018160011615610100020316600290048015610db15780601f10610d8657610100808354040283529160200191610db1565b820191906000526020600020905b815481529060010190602001808311610d9457829003601f168201915b50505050509080600c018054600181600116156101000203166002900480601f016020809104026020016040519081016040528092919081815260200182805460018160011615610100020316600290048015610e4f5780601f10610e2457610100808354040283529160200191610e4f565b820191906000526020600020905b815481529060010190602001808311610e3257829003601f168201915b5050505050905088565b600160405180604001604052803373ffffffffffffffffffffffffffffffffffffffff168152602001838152509080600181540180825580915050906001820390600052602060002090600202016000909192909190915060008201518160000160006101000a81548173ffffffffffffffffffffffffffffffffffffffff021916908373ffffffffffffffffffffffffffffffffffffffff1602179055506020820151816001019080519060200190610f14929190611e38565b5050505050565b6060600082118015610f2f57506002548211155b610f3857600080fd5b6000808381526020019081526020016000206006018054600181600116156101000203166002900480601f016020809104026020016040519081016040528092919081815260200182805460018160011615610100020316600290048015610fe15780601f10610fb657610100808354040283529160200191610fe1565b820191906000526020600020905b815481529060010190602001808311610fc457829003601f168201915b50505050509050919050565b6000808281526020019081526020016000206008018290806001815401808255809150509060018203906000526020600020016000909192909190915055505050565b60045481565b60035481565b8260008111801561104f57506002548111155b61105857600080fd5b600082905060008173ffffffffffffffffffffffffffffffffffffffff16633cd2e274336040518263ffffffff1660e01b81526004016110989190612526565b60206040518083038186803b1580156110b057600080fd5b505afa1580156110c4573d6000803e3d6000fd5b505050506040513d601f19601f820116820180604052506110e89190810190611fea565b9050806110f457600080fd5b8173ffffffffffffffffffffffffffffffffffffffff16632d955cf987336040518363ffffffff1660e01b815260040161112f9291906125bb565b600060405180830381600087803b15801561114957600080fd5b505af115801561115d573d6000803e3d6000fd5b505050506000808781526020019081526020016000206007018790806001815401808255809150509060018203906000526020600020016000909192909190915055506000808781526020019081526020016000206009013390806001815401808255809150509060018203906000526020600020016000909192909190916101000a81548173ffffffffffffffffffffffffffffffffffffffff021916908373ffffffffffffffffffffffffffffffffffffffff16021790555050600080878152602001908152602001600020600a01429080600181540180825580915050906001820390600052602060002001600090919290919091505550600080878152602001908152602001600020600b018590806001815401808255809150509060018203906000526020600020016000909192909190915090805190602001906112a8929190611db8565b505050505050505050565b60606000821180156112c757506002548211155b6112d057600080fd5b600080838152602001908152602001600020600c018054600181600116156101000203166002900480601f0160208091040260200160405190810160405280929190818152602001828054600181600116156101000203166002900480156113795780601f1061134e57610100808354040283529160200191611379565b820191906000526020600020905b81548152906001019060200180831161135c57829003601f168201915b50505050509050919050565b60606001805480602002602001604051908101604052809291908181526020016000905b828210156114d357838290600052602060002090600202016040518060400160405290816000820160009054906101000a900473ffffffffffffffffffffffffffffffffffffffff1673ffffffffffffffffffffffffffffffffffffffff1673ffffffffffffffffffffffffffffffffffffffff168152602001600182018054600181600116156101000203166002900480601f0160208091040260200160405190810160405280929190818152602001828054600181600116156101000203166002900480156114bb5780601f10611490576101008083540402835291602001916114bb565b820191906000526020600020905b81548152906001019060200180831161149e57829003601f168201915b505050505081525050815260200190600101906113a9565b50505050905090565b6060806040518060200160405280600081525090506115a8816000808681526020019081526020016000206001018054600181600116156101000203166002900480601f01602080910402602001604051908101604052809291908181526020018280546001816001161561010002031660029004801561159e5780601f106115735761010080835404028352916020019161159e565b820191906000526020600020905b81548152906001019060200180831161158157829003601f168201915b5050505050611c53565b90506115e9816040518060400160405280600181526020017f3a00000000000000000000000000000000000000000000000000000000000000815250611c53565b90506116128161160d60008087815260200190815260200160002060020154611c7f565b611c53565b9050611653816040518060400160405280600181526020017f3a00000000000000000000000000000000000000000000000000000000000000815250611c53565b90506116928161168d60008087815260200190815260200160002060070160008154811061167d57fe5b9060005260206000200154611c7f565b611c53565b90506116d3816040518060400160405280600181526020017f3a00000000000000000000000000000000000000000000000000000000000000815250611c53565b90506117128161170d6000808781526020019081526020016000206007016001815481106116fd57fe5b9060005260206000200154611c7f565b611c53565b9050611753816040518060400160405280600181526020017f3a00000000000000000000000000000000000000000000000000000000000000815250611c53565b90506117928161178d60008087815260200190815260200160002060070160028154811061177d57fe5b9060005260206000200154611c7f565b611c53565b90506117d3816040518060400160405280600181526020017f3a00000000000000000000000000000000000000000000000000000000000000815250611c53565b90506118a281600080868152602001908152602001600020600b016000815481106117fa57fe5b906000526020600020018054600181600116156101000203166002900480601f0160208091040260200160405190810160405280929190818152602001828054600181600116156101000203166002900480156118985780601f1061186d57610100808354040283529160200191611898565b820191906000526020600020905b81548152906001019060200180831161187b57829003601f168201915b5050505050611c53565b90506118e3816040518060400160405280600181526020017f3a00000000000000000000000000000000000000000000000000000000000000815250611c53565b90506119b281600080868152602001908152602001600020600b0160018154811061190a57fe5b906000526020600020018054600181600116156101000203166002900480601f0160208091040260200160405190810160405280929190818152602001828054600181600116156101000203166002900480156119a85780601f1061197d576101008083540402835291602001916119a8565b820191906000526020600020905b81548152906001019060200180831161198b57829003601f168201915b5050505050611c53565b90506119f3816040518060400160405280600181526020017f3a00000000000000000000000000000000000000000000000000000000000000815250611c53565b9050611ac281600080868152602001908152602001600020600b01600281548110611a1a57fe5b906000526020600020018054600181600116156101000203166002900480601f016020809104026020016040519081016040528092919081815260200182805460018160011615610100020316600290048015611ab85780601f10611a8d57610100808354040283529160200191611ab8565b820191906000526020600020905b815481529060010190602001808311611a9b57829003601f168201915b5050505050611c53565b9050611b03816040518060400160405280600181526020017f3a00000000000000000000000000000000000000000000000000000000000000815250611c53565b9050611b4281611b3d600080878152602001908152602001600020600a01600081548110611b2d57fe5b9060005260206000200154611c7f565b611c53565b9050611b83816040518060400160405280600181526020017f3a00000000000000000000000000000000000000000000000000000000000000815250611c53565b9050611bc281611bbd600080878152602001908152602001600020600a01600181548110611bad57fe5b9060005260206000200154611c7f565b611c53565b9050611c03816040518060400160405280600181526020017f3a00000000000000000000000000000000000000000000000000000000000000815250611c53565b9050611c4281611c3d600080878152602001908152602001600020600a01600281548110611c2d57fe5b9060005260206000200154611c7f565b611c53565b905080915050919050565b60025481565b60608282604051602001611c689291906124dc565b604051602081830303815290604052905092915050565b60606000821415611cc7576040518060400160405280600181526020017f30000000000000000000000000000000000000000000000000000000000000008152509050611db3565b600082905060005b60008214611cf1578080600101915050600a8281611ce957fe5b049150611ccf565b6060816040519080825280601f01601f191660200182016040528015611d265781602001600182028038833980820191505090505b50905060008290505b60008614611dab576001810390506000600a808881611d4a57fe5b04028703603001905060008160f81b905080848481518110611d6857fe5b60200101907effffffffffffffffffffffffffffffffffffffffffffffffffffffffffffff1916908160001a905350600a8881611da157fe5b0497505050611d2f565b819450505050505b919050565b828054600181600116156101000203166002900490600052602060002090601f016020900481019282601f10611df957805160ff1916838001178555611e27565b82800160010185558215611e27579182015b82811115611e26578251825591602001919060010190611e0b565b5b509050611e349190611eb8565b5090565b828054600181600116156101000203166002900490600052602060002090601f016020900481019282601f10611e7957805160ff1916838001178555611ea7565b82800160010185558215611ea7579182015b82811115611ea6578251825591602001919060010190611e8b565b5b509050611eb49190611eb8565b5090565b611eda91905b80821115611ed6576000816000905550600101611ebe565b5090565b90565b600081359050611eec81612824565b92915050565b600081519050611f018161283b565b92915050565b600082601f830112611f1857600080fd5b8135611f2b611f26826126ab565b61267e565b91508082526020830160208301858383011115611f4757600080fd5b611f528382846127d1565b50505092915050565b600081359050611f6a81612852565b92915050565b600081519050611f7f81612852565b92915050565b600060208284031215611f9757600080fd5b6000611fa584828501611edd565b91505092915050565b60008060408385031215611fc157600080fd5b6000611fcf85828601611edd565b9250506020611fe085828601611edd565b9150509250929050565b600060208284031215611ffc57600080fd5b600061200a84828501611ef2565b91505092915050565b60006020828403121561202557600080fd5b600082013567ffffffffffffffff81111561203f57600080fd5b61204b84828501611f07565b91505092915050565b600080600080600080600060e0888a03121561206f57600080fd5b600088013567ffffffffffffffff81111561208957600080fd5b6120958a828b01611f07565b97505060206120a68a828b01611f5b565b965050604088013567ffffffffffffffff8111156120c357600080fd5b6120cf8a828b01611f07565b955050606088013567ffffffffffffffff8111156120ec57600080fd5b6120f88a828b01611f07565b94505060806121098a828b01611f5b565b93505060a088013567ffffffffffffffff81111561212657600080fd5b6121328a828b01611f07565b92505060c06121438a828b01611edd565b91505092959891949750929550565b60006020828403121561216457600080fd5b600061217284828501611f5b565b91505092915050565b60006020828403121561218d57600080fd5b600061219b84828501611f70565b91505092915050565b600080604083850312156121b757600080fd5b60006121c585828601611f5b565b925050602083013567ffffffffffffffff8111156121e257600080fd5b6121ee85828601611f07565b9150509250929050565b6000806040838503121561220b57600080fd5b600061221985828601611f5b565b925050602061222a85828601611f5b565b9150509250929050565b6000806000806080858703121561224a57600080fd5b600061225887828801611f5b565b945050602061226987828801611f5b565b935050604085013567ffffffffffffffff81111561228657600080fd5b61229287828801611f07565b92505060606122a387828801611edd565b91505092959194509250565b60006122bb8383612490565b905092915050565b6122cc8161279b565b82525050565b6122db81612753565b82525050565b6122ea81612753565b82525050565b60006122fb826126e7565b6123058185612715565b935083602082028501612317856126d7565b8060005b85811015612353578484038952815161233485826122af565b945061233f83612708565b925060208a0199505060018101905061231b565b50829750879550505050505092915050565b61236e81612765565b82525050565b600061237f826126fd565b6123898185612737565b93506123998185602086016127e0565b6123a281612813565b840191505092915050565b60006123b8826126fd565b6123c28185612748565b93506123d28185602086016127e0565b80840191505092915050565b60006123e9826126f2565b6123f38185612726565b93506124038185602086016127e0565b61240c81612813565b840191505092915050565b6000612422826126f2565b61242c8185612737565b935061243c8185602086016127e0565b61244581612813565b840191505092915050565b600061245d600183612748565b91507f20000000000000000000000000000000000000000000000000000000000000006000830152600182019050919050565b60006040830160008301516124a860008601826122d2565b50602083015184820360208601526124c082826123de565b9150508091505092915050565b6124d681612791565b82525050565b60006124e882856123ad565b91506124f382612450565b91506124ff82846123ad565b91508190509392505050565b600060208201905061252060008301846122e1565b92915050565b600060208201905061253b60008301846122c3565b92915050565b6000602082019050818103600083015261255b81846122f0565b905092915050565b60006020820190506125786000830184612365565b92915050565b600060208201905081810360008301526125988184612374565b905092915050565b60006020820190506125b560008301846124cd565b92915050565b60006040820190506125d060008301856124cd565b6125dd60208301846122c3565b9392505050565b6000610100820190506125fa600083018b6124cd565b818103602083015261260c818a612417565b905061261b60408301896124cd565b818103606083015261262d8188612417565b905061263c60808301876124cd565b61264960a08301866124cd565b81810360c083015261265b8185612417565b905081810360e083015261266f8184612417565b90509998505050505050505050565b6000604051905081810181811067ffffffffffffffff821117156126a157600080fd5b8060405250919050565b600067ffffffffffffffff8211156126c257600080fd5b601f19601f8301169050602081019050919050565b6000819050602082019050919050565b600081519050919050565b600081519050919050565b600081519050919050565b6000602082019050919050565b600082825260208201905092915050565b600082825260208201905092915050565b600082825260208201905092915050565b600081905092915050565b600061275e82612771565b9050919050565b60008115159050919050565b600073ffffffffffffffffffffffffffffffffffffffff82169050919050565b6000819050919050565b60006127a6826127ad565b9050919050565b60006127b8826127bf565b9050919050565b60006127ca82612771565b9050919050565b82818337600083830152505050565b60005b838110156127fe5780820151818401526020810190506127e3565b8381111561280d576000848401525b50505050565b6000601f19601f8301169050919050565b61282d81612753565b811461283857600080fd5b50565b61284481612765565b811461284f57600080fd5b50565b61285b81612791565b811461286657600080fd5b5056fea365627a7a7231582079b7e5b61f968e620a7a7ba22285d3d383b1e4dc2b206f457ba55f44352c017a6c6578706572696d656e74616cf564736f6c63430005110040",
  "source": "pragma solidity ^0.5.0;\r\npragma experimental ABIEncoderV2;\r\n\r\n\r\nimport './Processes.sol';\r\nimport './Stakeholders.sol';\r\n\r\ncontract Product_Full_Details{\r\n\r\n    struct Product {\r\n        uint id;\r\n        string name;\r\n        uint quantity;\r\n        string description;\r\n        uint numberoftraces;\r\n        uint numberoftemperatures;\r\n\t    string test_number;\r\n\r\n\r\n        //all these are tabulated \r\n        uint [] temperatures;\r\n        uint [] processes_involved;\r\n        address [] stakeholders_involved; \r\n        uint [] timestamps;\r\n        string [] locations;\r\n        string globalId; \r\n    }\r\n\r\n    //All instance varibles\r\n\r\n    struct stakeholder {\r\n        address addressstake;\r\n        string staketype;\r\n    }\r\n\r\n    mapping(uint => Product) public products; \r\n    stakeholder[] stakeholderlist;\r\n\r\n\r\n\r\n\r\n\r\n    function registerStakeholder(string memory stakeholdertype) public {\r\n        stakeholderlist.push(stakeholder(msg.sender,stakeholdertype));\r\n    }\r\n\r\n     function getStakeHolderList() public view returns(stakeholder [] memory){\r\n         return stakeholderlist;    \r\n    }\r\n\r\n\r\n\r\n\r\n    uint public productsCount;\r\n\r\n    // Just to know the statistics\r\n    uint public globalnumberstakeholders;\r\n    uint public globalnumberProcesses;\r\n\r\n\r\n\r\n    //Only to be called by manufactuerer\r\n    //he should provide the quantity, his id , place, temperature\r\n    //we anyways deploy backend we also send addrs\r\n    function addProductManufacturer (string memory _name, uint _quantity, string memory _description, string memory _globalID,uint temp,string memory place,address addr) public {\r\n        Stakeholders s = Stakeholders(addr);\r\n        bool ex=s.isManufacturer(msg.sender);\r\n        require(ex);\r\n        productsCount++; \r\n        s.addStakeholderProduct(productsCount,msg.sender);\r\n        \r\n        products[productsCount].id = productsCount; \r\n        products[productsCount].name = _name;\r\n        products[productsCount].quantity = _quantity;\r\n        products[productsCount].description = _description;\r\n        products[productsCount].globalId = _globalID;\r\n        products[productsCount].temperatures.push(temp);\r\n        products[productsCount].stakeholders_involved.push(msg.sender);\r\n        products[productsCount].timestamps.push(now);\r\n        products[productsCount].locations.push(place);\r\n    }\r\n    \r\n    \r\n    function addProductDistributer (uint temp,uint pid,string memory place,address addr) public restricted(pid) {\r\n        Stakeholders s = Stakeholders(addr);\r\n        bool ex=s.isDistributer(msg.sender);\r\n        require(ex);\r\n        s.addStakeholderProduct(pid,msg.sender);\r\n        products[pid].temperatures.push(temp);\r\n        products[pid].stakeholders_involved.push(msg.sender);\r\n        products[pid].timestamps.push(now);\r\n        products[pid].locations.push(place);\r\n    } \r\n\r\n\r\n    function addProductRetailer (uint pid,uint temp,string memory place,address addr) public restricted(pid) {\r\n        Stakeholders s = Stakeholders(addr);\r\n        bool ex=s.isRetailer(msg.sender);\r\n        require(ex);\r\n        s.addStakeholderProduct(pid,msg.sender);\r\n        products[pid].temperatures.push(temp);\r\n        products[pid].stakeholders_involved.push(msg.sender);\r\n        products[pid].timestamps.push(now);\r\n        products[pid].locations.push(place);\r\n    }\r\n\r\n\r\n    function addProductProcessInvolved(uint processid,uint productid) public{\r\n        products[productid].processes_involved.push(processid);\r\n    }\r\n    \r\n\r\n\r\n    //Adding the microscope tests\r\n    function addTestProduct (uint _productId, string memory _test_number) public { \r\n        require(_productId > 0 && _productId <= productsCount); \r\n        products[_productId].test_number = _test_number; \r\n    }\r\n\r\n\r\n    function getNumberOfProducts () public view returns (uint){\r\n        return productsCount;\r\n    }\r\n\r\n    function UpdateProductDescription (uint _productId, string memory _description) public { \r\n        require(_productId > 0 && _productId <= productsCount); \r\n        products[_productId].description = _description;  \r\n    }\r\n\r\n\r\n\r\n    function concatenate(string memory a,string memory b) private pure returns (string memory){\r\n        return string(abi.encodePacked(a,' ',b));\r\n    } \r\n\r\n            \r\n\r\n    function getProductFullDetails (uint _productId) public view returns (string memory) {    \r\n        string memory r=\"\";\r\n        r=concatenate(r,products[_productId].name);\r\n        r=concatenate(r,\":\");\r\n        r=concatenate(r,uint2str(products[_productId].quantity));\r\n        r=concatenate(r,\":\");\r\n        r=concatenate(r,uint2str(products[_productId].temperatures[0]));\r\n        r=concatenate(r,\":\");\r\n        r=concatenate(r,uint2str(products[_productId].temperatures[1]));\r\n        r=concatenate(r,\":\");\r\n        r=concatenate(r,uint2str(products[_productId].temperatures[2]));\r\n        \r\n        r=concatenate(r,\":\");\r\n        r=concatenate(r,(products[_productId].locations[0]));\r\n        r=concatenate(r,\":\");\r\n        r=concatenate(r,(products[_productId].locations[1]));\r\n        r=concatenate(r,\":\");\r\n        r=concatenate(r,(products[_productId].locations[2]));\r\n\r\n        \r\n        r=concatenate(r,\":\");\r\n        r=concatenate(r,uint2str(products[_productId].timestamps[0]));\r\n        r=concatenate(r,\":\");\r\n        r=concatenate(r,uint2str(products[_productId].timestamps[1]));\r\n        r=concatenate(r,\":\");\r\n        r=concatenate(r,uint2str(products[_productId].timestamps[2]));\r\n\r\n\r\n        return r;\r\n    }\r\n\r\n    function getProductGlobalID (uint _productId) public view returns (string memory) {\r\n        require(_productId > 0 && _productId <= productsCount); \r\n\r\n        return products[_productId].globalId;\r\n    }\r\n\r\n    function getProductTest (uint _productId) public view returns (string memory) {\r\n        require(_productId > 0 && _productId <= productsCount); \r\n\r\n        return products[_productId].test_number;\r\n    }\r\n\r\n    function updateNumberOfProcesses (address addr) public {\r\n        \r\n        Processes p = Processes(addr);\r\n        globalnumberProcesses=p.getNumberOfProcesses();    \r\n    }\r\n\r\n\r\n   function updateNumberOfStakeholders (address addr) public {\r\n        \r\n        Stakeholders s = Stakeholders(addr);\r\n        globalnumberstakeholders=s.getNumberOfStakeholders();\r\n        \r\n    }\r\n\r\n    function checkStakeholder (address addr, address stake) public view returns (bool){\r\n        Stakeholders s = Stakeholders(addr);\r\n        bool ex=s.exists(stake);\r\n        return ex;\r\n    }\r\n    \r\n\r\n    //*********************\r\n    //utility functions\r\n    //*********************\r\n\r\n\r\n    modifier restricted(uint _productId){\r\n        require(_productId > 0 && _productId <= productsCount);\r\n        _;\r\n    }\r\n\r\n    function uint2str(uint _i) internal pure returns (string memory _uintAsString) {\r\n            if (_i == 0) {\r\n                return \"0\";\r\n            }\r\n            uint j = _i;\r\n            uint len;\r\n            while (j != 0) {\r\n                len++;\r\n                j /= 10;\r\n            }\r\n            bytes memory bstr = new bytes(len);\r\n            uint k = len;\r\n            while (_i != 0) {\r\n                k = k-1;\r\n                uint8 temp = (48 + uint8(_i - _i / 10 * 10));\r\n                bytes1 b1 = bytes1(temp);\r\n                bstr[k] = b1;\r\n                _i /= 10;\r\n            }\r\n            return string(bstr);\r\n        }\r\n}\r\n\r\n\r\n",
  "sourcePath": "C:\\Users\\91868\\Downloads\\New folder\\c\\contracts\\Product_Full_Details.sol",
  "compiler": {
    "name": "solc",
    "version": "0.5.17+commit.d19bba13.Emscripten.clang"
  },
  "schemaVersion": "3.4.7",
  "updatedAt": "2022-06-28T17:33:45.127Z",
  "networkType": "ethereum",
  "devdoc": {
    "methods": {}
  },
  "userdoc": {
    "methods": {}
  }
}