{
  "contractName": "Stakeholders",
  "abi": [
    {
      "inputs": [],
      "payable": false,
      "stateMutability": "nonpayable",
      "type": "constructor"
    },
    {
      "constant": true,
      "inputs": [],
      "name": "stakeholderCount",
      "outputs": [
        {
          "internalType": "uint256",
          "name": "",
          "type": "uint256"
        }
      ],
      "payable": false,
      "stateMutability": "view",
      "type": "function"
    },
    {
      "constant": false,
      "inputs": [
        {
          "internalType": "string",
          "name": "_name",
          "type": "string"
        },
        {
          "internalType": "string",
          "name": "_description",
          "type": "string"
        },
        {
          "internalType": "address",
          "name": "_stake",
          "type": "address"
        },
        {
          "internalType": "string",
          "name": "stakeholdertype",
          "type": "string"
        }
      ],
      "name": "addStakeholder",
      "outputs": [],
      "payable": false,
      "stateMutability": "nonpayable",
      "type": "function"
    },
    {
      "constant": true,
      "inputs": [
        {
          "internalType": "address",
          "name": "addr",
          "type": "address"
        }
      ],
      "name": "isManufacturer",
      "outputs": [
        {
          "internalType": "bool",
          "name": "",
          "type": "bool"
        }
      ],
      "payable": false,
      "stateMutability": "view",
      "type": "function"
    },
    {
      "constant": true,
      "inputs": [
        {
          "internalType": "address",
          "name": "addr",
          "type": "address"
        }
      ],
      "name": "isDistributer",
      "outputs": [
        {
          "internalType": "bool",
          "name": "",
          "type": "bool"
        }
      ],
      "payable": false,
      "stateMutability": "view",
      "type": "function"
    },
    {
      "constant": true,
      "inputs": [
        {
          "internalType": "address",
          "name": "addr",
          "type": "address"
        }
      ],
      "name": "isRetailer",
      "outputs": [
        {
          "internalType": "bool",
          "name": "",
          "type": "bool"
        }
      ],
      "payable": false,
      "stateMutability": "view",
      "type": "function"
    },
    {
      "constant": false,
      "inputs": [
        {
          "internalType": "uint256",
          "name": "_id",
          "type": "uint256"
        },
        {
          "internalType": "address",
          "name": "_stake",
          "type": "address"
        }
      ],
      "name": "addStakeholderProduct",
      "outputs": [],
      "payable": false,
      "stateMutability": "nonpayable",
      "type": "function"
    },
    {
      "constant": false,
      "inputs": [
        {
          "internalType": "bool",
          "name": "_active",
          "type": "bool"
        },
        {
          "internalType": "address",
          "name": "_stake",
          "type": "address"
        }
      ],
      "name": "changeStatus",
      "outputs": [],
      "payable": false,
      "stateMutability": "nonpayable",
      "type": "function"
    },
    {
      "constant": true,
      "inputs": [
        {
          "internalType": "address",
          "name": "_stake",
          "type": "address"
        }
      ],
      "name": "getStakeholdersProduct",
      "outputs": [
        {
          "internalType": "uint256[]",
          "name": "",
          "type": "uint256[]"
        }
      ],
      "payable": false,
      "stateMutability": "view",
      "type": "function"
    },
    {
      "constant": true,
      "inputs": [
        {
          "internalType": "address",
          "name": "_stake",
          "type": "address"
        }
      ],
      "name": "getStakeholder",
      "outputs": [
        {
          "components": [
            {
              "internalType": "uint256",
              "name": "id",
              "type": "uint256"
            },
            {
              "internalType": "string",
              "name": "stakeholderType",
              "type": "string"
            },
            {
              "internalType": "string",
              "name": "name",
              "type": "string"
            },
            {
              "internalType": "uint256",
              "name": "timestamp",
              "type": "uint256"
            },
            {
              "internalType": "uint256[]",
              "name": "involvedproducts",
              "type": "uint256[]"
            },
            {
              "internalType": "string",
              "name": "description",
              "type": "string"
            },
            {
              "internalType": "address",
              "name": "myself",
              "type": "address"
            },
            {
              "internalType": "bool",
              "name": "active",
              "type": "bool"
            }
          ],
          "internalType": "struct Stakeholders.Stakeholder",
          "name": "",
          "type": "tuple"
        }
      ],
      "payable": false,
      "stateMutability": "view",
      "type": "function"
    },
    {
      "constant": true,
      "inputs": [
        {
          "internalType": "address",
          "name": "_stake",
          "type": "address"
        }
      ],
      "name": "getStakeholdername",
      "outputs": [
        {
          "internalType": "string",
          "name": "",
          "type": "string"
        }
      ],
      "payable": false,
      "stateMutability": "view",
      "type": "function"
    },
    {
      "constant": true,
      "inputs": [
        {
          "internalType": "address",
          "name": "_stake",
          "type": "address"
        }
      ],
      "name": "getStakeholdertype",
      "outputs": [
        {
          "internalType": "string",
          "name": "",
          "type": "string"
        }
      ],
      "payable": false,
      "stateMutability": "view",
      "type": "function"
    },
    {
      "constant": true,
      "inputs": [
        {
          "internalType": "address",
          "name": "_stake",
          "type": "address"
        }
      ],
      "name": "getStakeholderdesc",
      "outputs": [
        {
          "internalType": "string",
          "name": "",
          "type": "string"
        }
      ],
      "payable": false,
      "stateMutability": "view",
      "type": "function"
    },
    {
      "constant": true,
      "inputs": [],
      "name": "getNumberOfStakeholders",
      "outputs": [
        {
          "internalType": "uint256",
          "name": "",
          "type": "uint256"
        }
      ],
      "payable": false,
      "stateMutability": "view",
      "type": "function"
    },
    {
      "constant": true,
      "inputs": [
        {
          "internalType": "address",
          "name": "_stake",
          "type": "address"
        }
      ],
      "name": "exists",
      "outputs": [
        {
          "internalType": "bool",
          "name": "",
          "type": "bool"
        }
      ],
      "payable": false,
      "stateMutability": "view",
      "type": "function"
    },
    {
      "constant": true,
      "inputs": [
        {
          "internalType": "address[]",
          "name": "arr",
          "type": "address[]"
        }
      ],
      "name": "getFullStakeholdersDetails",
      "outputs": [
        {
          "internalType": "string",
          "name": "",
          "type": "string"
        }
      ],
      "payable": false,
      "stateMutability": "view",
      "type": "function"
    }
  ],
  "bytecode": "0x608060405234801561001057600080fd5b50336000806101000a81548173ffffffffffffffffffffffffffffffffffffffff021916908373ffffffffffffffffffffffffffffffffffffffff160217905550611d4d806100606000396000f3fe608060405234801561001057600080fd5b50600436106100f55760003560e01c806397f8332911610097578063d8319ef311610066578063d8319ef3146102bc578063e54fd3ff146102da578063f6a3d24e1461030a578063fde7aba31461033a576100f5565b806397f8332914610222578063b3d8f3b51461023e578063b8acded81461025c578063c3e5be961461028c576100f5565b80633cd2e274116100d35780633cd2e274146101625780635da09b881461019257806362afde25146101c25780636702cdcf146101f2576100f5565b806317d4a491146100fa57806320b6e4e51461012a5780632d955cf914610146575b600080fd5b610114600480360361010f919081019061150f565b61036a565b6040516101219190611a43565b60405180910390f35b610144600480360361013f9190810190611579565b61043e565b005b610160600480360361015b9190810190611660565b6104b5565b005b61017c6004803603610177919081019061150f565b610525565b6040516101899190611a43565b60405180910390f35b6101ac60048036036101a7919081019061150f565b6105f9565b6040516101b99190611a43565b60405180910390f35b6101dc60048036036101d7919081019061150f565b6106cd565b6040516101e99190611aa2565b60405180910390f35b61020c60048036036102079190810190611538565b6109ea565b6040516102199190611a5e565b60405180910390f35b61023c600480360361023791908101906115b5565b610c23565b005b610246610f04565b6040516102539190611ac4565b60405180910390f35b6102766004803603610271919081019061150f565b610f0e565b6040516102839190611a5e565b60405180910390f35b6102a660048036036102a1919081019061150f565b610ff2565b6040516102b39190611a21565b60405180910390f35b6102c461108c565b6040516102d19190611ac4565b60405180910390f35b6102f460048036036102ef919081019061150f565b611092565b6040516103019190611a5e565b60405180910390f35b610324600480360361031f919081019061150f565b611176565b6040516103319190611a43565b60405180910390f35b610354600480360361034f919081019061150f565b6111e7565b6040516103619190611a5e565b60405180910390f35b600060606040518060400160405280600c81526020017f4d616e75666163747572657200000000000000000000000000000000000000008152509050806040516020016103b79190611a5e565b60405160208183030381529060405280519060200120600160008573ffffffffffffffffffffffffffffffffffffffff1673ffffffffffffffffffffffffffffffffffffffff16815260200190815260200160002060010160405160200161041f9190611a80565b6040516020818303038152906040528051906020012014915050919050565b6001151561044b82611176565b15151461045757600080fd5b81600160008373ffffffffffffffffffffffffffffffffffffffff1673ffffffffffffffffffffffffffffffffffffffff16815260200190815260200160002060060160146101000a81548160ff0219169083151502179055505050565b600160008273ffffffffffffffffffffffffffffffffffffffff1673ffffffffffffffffffffffffffffffffffffffff1681526020019081526020016000206004018290806001815401808255809150509060018203906000526020600020016000909192909190915055505050565b600060606040518060400160405280600b81526020017f44697374726962757465720000000000000000000000000000000000000000008152509050806040516020016105729190611a5e565b60405160208183030381529060405280519060200120600160008573ffffffffffffffffffffffffffffffffffffffff1673ffffffffffffffffffffffffffffffffffffffff1681526020019081526020016000206001016040516020016105da9190611a80565b6040516020818303038152906040528051906020012014915050919050565b600060606040518060400160405280600881526020017f52657461696c65720000000000000000000000000000000000000000000000008152509050806040516020016106469190611a5e565b60405160208183030381529060405280519060200120600160008573ffffffffffffffffffffffffffffffffffffffff1673ffffffffffffffffffffffffffffffffffffffff1681526020019081526020016000206001016040516020016106ae9190611a80565b6040516020818303038152906040528051906020012014915050919050565b6106d56112f7565b600160008373ffffffffffffffffffffffffffffffffffffffff1673ffffffffffffffffffffffffffffffffffffffff1681526020019081526020016000206040518061010001604052908160008201548152602001600182018054600181600116156101000203166002900480601f0160208091040260200160405190810160405280929190818152602001828054600181600116156101000203166002900480156107c35780601f10610798576101008083540402835291602001916107c3565b820191906000526020600020905b8154815290600101906020018083116107a657829003601f168201915b50505050508152602001600282018054600181600116156101000203166002900480601f0160208091040260200160405190810160405280929190818152602001828054600181600116156101000203166002900480156108655780601f1061083a57610100808354040283529160200191610865565b820191906000526020600020905b81548152906001019060200180831161084857829003601f168201915b5050505050815260200160038201548152602001600482018054806020026020016040519081016040528092919081815260200182805480156108c757602002820191906000526020600020905b8154815260200190600101908083116108b3575b50505050508152602001600582018054600181600116156101000203166002900480601f0160208091040260200160405190810160405280929190818152602001828054600181600116156101000203166002900480156109695780601f1061093e57610100808354040283529160200191610969565b820191906000526020600020905b81548152906001019060200180831161094c57829003601f168201915b505050505081526020016006820160009054906101000a900473ffffffffffffffffffffffffffffffffffffffff1673ffffffffffffffffffffffffffffffffffffffff1673ffffffffffffffffffffffffffffffffffffffff1681526020016006820160149054906101000a900460ff1615151515815250509050919050565b60608060405180602001604052806000815250905060008090505b8351811015610c1957606060016000868481518110610a2057fe5b602002602001015173ffffffffffffffffffffffffffffffffffffffff1673ffffffffffffffffffffffffffffffffffffffff1681526020019081526020016000206002018054600181600116156101000203166002900480601f016020809104026020016040519081016040528092919081815260200182805460018160011615610100020316600290048015610af95780601f10610ace57610100808354040283529160200191610af9565b820191906000526020600020905b815481529060010190602001808311610adc57829003601f168201915b50505050509050606060016000878581518110610b1257fe5b602002602001015173ffffffffffffffffffffffffffffffffffffffff1673ffffffffffffffffffffffffffffffffffffffff1681526020019081526020016000206005018054600181600116156101000203166002900480601f016020809104026020016040519081016040528092919081815260200182805460018160011615610100020316600290048015610beb5780601f10610bc057610100808354040283529160200191610beb565b820191906000526020600020905b815481529060010190602001808311610bce57829003601f168201915b50505050509050610bfc84836112cb565b9350610c0884826112cb565b935050508080600101915050610a05565b5080915050919050565b3373ffffffffffffffffffffffffffffffffffffffff166000809054906101000a900473ffffffffffffffffffffffffffffffffffffffff1673ffffffffffffffffffffffffffffffffffffffff1614610c7c57600080fd5b600260008154809291906001019190505550600254600160008473ffffffffffffffffffffffffffffffffffffffff1673ffffffffffffffffffffffffffffffffffffffff1681526020019081526020016000206000018190555083600160008473ffffffffffffffffffffffffffffffffffffffff1673ffffffffffffffffffffffffffffffffffffffff1681526020019081526020016000206002019080519060200190610d2d929190611354565b5042600160008473ffffffffffffffffffffffffffffffffffffffff1673ffffffffffffffffffffffffffffffffffffffff1681526020019081526020016000206003018190555082600160008473ffffffffffffffffffffffffffffffffffffffff1673ffffffffffffffffffffffffffffffffffffffff1681526020019081526020016000206005019080519060200190610dcb929190611354565b5081600160008473ffffffffffffffffffffffffffffffffffffffff1673ffffffffffffffffffffffffffffffffffffffff16815260200190815260200160002060060160006101000a81548173ffffffffffffffffffffffffffffffffffffffff021916908373ffffffffffffffffffffffffffffffffffffffff16021790555080600160008473ffffffffffffffffffffffffffffffffffffffff1673ffffffffffffffffffffffffffffffffffffffff1681526020019081526020016000206001019080519060200190610ea3929190611354565b5060018060008473ffffffffffffffffffffffffffffffffffffffff1673ffffffffffffffffffffffffffffffffffffffff16815260200190815260200160002060060160146101000a81548160ff02191690831515021790555050505050565b6000600254905090565b6060600160008373ffffffffffffffffffffffffffffffffffffffff1673ffffffffffffffffffffffffffffffffffffffff1681526020019081526020016000206001018054600181600116156101000203166002900480601f016020809104026020016040519081016040528092919081815260200182805460018160011615610100020316600290048015610fe65780601f10610fbb57610100808354040283529160200191610fe6565b820191906000526020600020905b815481529060010190602001808311610fc957829003601f168201915b50505050509050919050565b6060600160008373ffffffffffffffffffffffffffffffffffffffff1673ffffffffffffffffffffffffffffffffffffffff16815260200190815260200160002060040180548060200260200160405190810160405280929190818152602001828054801561108057602002820191906000526020600020905b81548152602001906001019080831161106c575b50505050509050919050565b60025481565b6060600160008373ffffffffffffffffffffffffffffffffffffffff1673ffffffffffffffffffffffffffffffffffffffff1681526020019081526020016000206005018054600181600116156101000203166002900480601f01602080910402602001604051908101604052809291908181526020018280546001816001161561010002031660029004801561116a5780601f1061113f5761010080835404028352916020019161116a565b820191906000526020600020905b81548152906001019060200180831161114d57829003601f168201915b50505050509050919050565b600060011515600160008473ffffffffffffffffffffffffffffffffffffffff1673ffffffffffffffffffffffffffffffffffffffff16815260200190815260200160002060060160149054906101000a900460ff16151514156111dd57600190506111e2565b600090505b919050565b6060600160008373ffffffffffffffffffffffffffffffffffffffff1673ffffffffffffffffffffffffffffffffffffffff1681526020019081526020016000206002018054600181600116156101000203166002900480601f0160208091040260200160405190810160405280929190818152602001828054600181600116156101000203166002900480156112bf5780601f10611294576101008083540402835291602001916112bf565b820191906000526020600020905b8154815290600101906020018083116112a257829003601f168201915b50505050509050919050565b606082826040516020016112e09291906119f2565b604051602081830303815290604052905092915050565b604051806101000160405280600081526020016060815260200160608152602001600081526020016060815260200160608152602001600073ffffffffffffffffffffffffffffffffffffffff1681526020016000151581525090565b828054600181600116156101000203166002900490600052602060002090601f016020900481019282601f1061139557805160ff19168380011785556113c3565b828001600101855582156113c3579182015b828111156113c25782518255916020019190600101906113a7565b5b5090506113d091906113d4565b5090565b6113f691905b808211156113f25760008160009055506001016113da565b5090565b90565b60008135905061140881611cc5565b92915050565b600082601f83011261141f57600080fd5b813561143261142d82611b0c565b611adf565b9150818183526020840193506020810190508385602084028201111561145757600080fd5b60005b83811015611487578161146d88826113f9565b84526020840193506020830192505060018101905061145a565b5050505092915050565b6000813590506114a081611cdc565b92915050565b600082601f8301126114b757600080fd5b81356114ca6114c582611b34565b611adf565b915080825260208301602083018583830111156114e657600080fd5b6114f1838284611c72565b50505092915050565b60008135905061150981611cf3565b92915050565b60006020828403121561152157600080fd5b600061152f848285016113f9565b91505092915050565b60006020828403121561154a57600080fd5b600082013567ffffffffffffffff81111561156457600080fd5b6115708482850161140e565b91505092915050565b6000806040838503121561158c57600080fd5b600061159a85828601611491565b92505060206115ab858286016113f9565b9150509250929050565b600080600080608085870312156115cb57600080fd5b600085013567ffffffffffffffff8111156115e557600080fd5b6115f1878288016114a6565b945050602085013567ffffffffffffffff81111561160e57600080fd5b61161a878288016114a6565b935050604061162b878288016113f9565b925050606085013567ffffffffffffffff81111561164857600080fd5b611654878288016114a6565b91505092959194509250565b6000806040838503121561167357600080fd5b6000611681858286016114fa565b9250506020611692858286016113f9565b9150509250929050565b60006116a883836119d4565b60208301905092915050565b6116bd81611c2a565b82525050565b60006116ce82611ba0565b6116d88185611bec565b93506116e383611b70565b8060005b838110156117145781516116fb888261169c565b975061170683611bce565b9250506001810190506116e7565b5085935050505092915050565b600061172c82611b95565b6117368185611bdb565b935061174183611b60565b8060005b83811015611772578151611759888261169c565b975061176483611bc1565b925050600181019050611745565b5085935050505092915050565b61178881611c3c565b82525050565b61179781611c3c565b82525050565b60006117a882611bb6565b6117b28185611c0e565b93506117c2818560208601611c81565b6117cb81611cb4565b840191505092915050565b60006117e182611bb6565b6117eb8185611c1f565b93506117fb818560208601611c81565b80840191505092915050565b600061181282611bab565b61181c8185611bfd565b935061182c818560208601611c81565b61183581611cb4565b840191505092915050565b60008154600181166000811461185d5760018114611883576118c7565b607f600283041661186e8187611c0e565b955060ff1983168652602086019350506118c7565b600282046118918187611c0e565b955061189c85611b80565b60005b828110156118be5781548189015260018201915060208101905061189f565b80880195505050505b505092915050565b60006118dc600183611c1f565b91507f20000000000000000000000000000000000000000000000000000000000000006000830152600182019050919050565b60006101008301600083015161192860008601826119d4565b50602083015184820360208601526119408282611807565b9150506040830151848203604086015261195a8282611807565b915050606083015161196f60608601826119d4565b50608083015184820360808601526119878282611721565b91505060a083015184820360a08601526119a18282611807565b91505060c08301516119b660c08601826116b4565b5060e08301516119c960e086018261177f565b508091505092915050565b6119dd81611c68565b82525050565b6119ec81611c68565b82525050565b60006119fe82856117d6565b9150611a09826118cf565b9150611a1582846117d6565b91508190509392505050565b60006020820190508181036000830152611a3b81846116c3565b905092915050565b6000602082019050611a58600083018461178e565b92915050565b60006020820190508181036000830152611a78818461179d565b905092915050565b60006020820190508181036000830152611a9a8184611840565b905092915050565b60006020820190508181036000830152611abc818461190f565b905092915050565b6000602082019050611ad960008301846119e3565b92915050565b6000604051905081810181811067ffffffffffffffff82111715611b0257600080fd5b8060405250919050565b600067ffffffffffffffff821115611b2357600080fd5b602082029050602081019050919050565b600067ffffffffffffffff821115611b4b57600080fd5b601f19601f8301169050602081019050919050565b6000819050602082019050919050565b6000819050602082019050919050565b60008190508160005260206000209050919050565b600081519050919050565b600081519050919050565b600081519050919050565b600081519050919050565b6000602082019050919050565b6000602082019050919050565b600082825260208201905092915050565b600082825260208201905092915050565b600082825260208201905092915050565b600082825260208201905092915050565b600081905092915050565b6000611c3582611c48565b9050919050565b60008115159050919050565b600073ffffffffffffffffffffffffffffffffffffffff82169050919050565b6000819050919050565b82818337600083830152505050565b60005b83811015611c9f578082015181840152602081019050611c84565b83811115611cae576000848401525b50505050565b6000601f19601f8301169050919050565b611cce81611c2a565b8114611cd957600080fd5b50565b611ce581611c3c565b8114611cf057600080fd5b50565b611cfc81611c68565b8114611d0757600080fd5b5056fea365627a7a723158209c9b6e81506c45eaac3c2a208b6b7013bfb65080ed407af74eaa43e9619c22766c6578706572696d656e74616cf564736f6c63430005110040",
  "source": "pragma solidity ^0.5.0;\r\npragma experimental ABIEncoderV2;\r\n \r\n\r\nimport './Processes.sol';\r\nimport './Product_Full_Details.sol';\r\n\r\n\r\n\r\ncontract Stakeholders{\r\n    struct Stakeholder{\r\n        uint id; // id\r\n        string stakeholderType;\r\n        string name; // the name of stakeholder\r\n        uint timestamp; // when it was registered\r\n        uint [] involvedproducts; // products used or related to stakeholder\r\n        string description; // other info\r\n\t    address myself; // the address of this stakeholder\r\n        // address maker; // who registered this stakeholder, admin system\r\n        bool active; // to enable or disable this stakeholder\r\n    }\r\n\r\n    address admin;\r\n\r\n    mapping(address => Stakeholder) private stakeholderAddrs; \r\n    uint public stakeholderCount;\r\n\r\n\r\n    constructor ()public {\r\n        admin=msg.sender;\r\n    }\r\n\r\n\r\n    //_stake is the address of the stakeholder who is going to be added\r\n    function addStakeholder (string memory _name,  string memory _description, address _stake,string memory stakeholdertype) public {\r\n\r\n        //&& (stakeholdertype== 'MANUFACTURER' || stakeholdertype=='DISTRIBUTER' || stakeholdertype=='RETAILER')\r\n\r\n        require(admin==msg.sender );\r\n        stakeholderCount++;\r\n        stakeholderAddrs[_stake].id = stakeholderCount;\r\n        stakeholderAddrs[_stake].name = _name; \r\n        stakeholderAddrs[_stake].timestamp = now; \r\n        stakeholderAddrs[_stake].description = _description;\r\n        stakeholderAddrs[_stake].myself = _stake; \r\n        stakeholderAddrs[_stake].stakeholderType=stakeholdertype; \r\n        stakeholderAddrs[_stake].active = true; \r\n    }\r\n\r\n\r\n\r\n    function isManufacturer(address addr) public view returns (bool){\r\n        string memory y=\"Manufacturer\";\r\n        return keccak256(abi.encode(stakeholderAddrs[addr].stakeholderType)) == keccak256(abi.encode(y));\r\n    }\r\n    function isDistributer(address addr) public view returns (bool){\r\n        string memory y=\"Distributer\";\r\n        return keccak256(abi.encode(stakeholderAddrs[addr].stakeholderType)) == keccak256(abi.encode(y));\r\n    }\r\n    function isRetailer(address addr) public view returns (bool){\r\n        string memory y=\"Retailer\";\r\n        return keccak256(abi.encode(stakeholderAddrs[addr].stakeholderType)) == keccak256(abi.encode(y));\r\n    }\r\n\r\n\r\n\r\n    function addStakeholderProduct(uint _id, address _stake) public { \r\n        stakeholderAddrs[_stake].involvedproducts.push(_id); \r\n    }\r\n\r\n    function changeStatus (bool _active, address _stake) public {\r\n        require(exists(_stake)==true);\r\n        stakeholderAddrs[_stake].active = _active;\r\n    }\r\n\r\n\r\n    //require statements \r\n    function getStakeholdersProduct (address _stake) public view returns (uint [] memory)  {\r\n        return stakeholderAddrs[_stake].involvedproducts;\r\n    }\r\n\r\n\r\n    function getStakeholder (address _stake) public view returns (Stakeholder memory)  {\r\n\r\n\r\n        return stakeholderAddrs[_stake];\r\n    }\r\n\r\n     function getStakeholdername (address _stake) public view returns (string memory)  {\r\n\r\n\r\n        return stakeholderAddrs[_stake].name;\r\n    }\r\n\r\n     function getStakeholdertype (address _stake) public view returns (string memory)  {\r\n\r\n\r\n        return stakeholderAddrs[_stake].stakeholderType;\r\n    }\r\n\r\n    function getStakeholderdesc (address _stake) public view returns (string memory)  {\r\n\r\n\r\n        return stakeholderAddrs[_stake].description;\r\n    }\r\n    \r\n    function getNumberOfStakeholders () public view returns (uint){    \r\n        return stakeholderCount;\r\n    }\r\n\r\n    function exists(address _stake) public view returns (bool){\r\n        if(stakeholderAddrs[_stake].active == true){\r\n            return true;\r\n        }\r\n        return false;\r\n    }\r\n    function concatenate(string memory a,string memory b) private pure returns (string memory){\r\n        return string(abi.encodePacked(a,' ',b));\r\n    } \r\n\r\n    function getFullStakeholdersDetails(address[] memory arr) public view returns(string memory){\r\n        string memory r=\"\";\r\n         for (uint i=0; i<arr.length; i++) {\r\n            string memory temp1=stakeholderAddrs[arr[i]].name;\r\n            string memory temp2=stakeholderAddrs[arr[i]].description;\r\n            \r\n            r=concatenate(r,temp1);\r\n            r=concatenate(r,temp2);\r\n         }\r\n\r\n        return r;\r\n    }\r\n\r\n}\r\n\r\n\r\n\r\n\r\n",
  "sourcePath": "C:\\Users\\91868\\Downloads\\New folder\\c\\contracts\\Stakeholders.sol",
  "compiler": {
    "name": "solc",
    "version": "0.5.17+commit.d19bba13.Emscripten.clang"
  },
  "schemaVersion": "3.4.7",
  "updatedAt": "2022-06-28T17:33:45.154Z",
  "networkType": "ethereum",
  "devdoc": {
    "methods": {}
  },
  "userdoc": {
    "methods": {}
  }
}